:10020F00C7EBB0B4CAD6D6B8BFAACBF800C3C5D215
:10021F00D1B4F2BFAA00B1E0BAC5CEAA3A00C3BBAF
:10022F00CBD1CBF7B5BDD6B8CEC600C7EBD6D8D09D
:10023F00C2B0B4CAD6D6B800BDD3CAD5B0FCB3F6D7
:10024F00B4ED00C7EBB0B4CAD6D6B800B8C3D6B8B1
:10025F00CEC6D2D1B4E6B4A2002020B0B4C8CED25C
:10026F00E2BCFCBCCCD0F800C7EBD4D9B4CEB0B450
:10027F00CAD6D6B800D6B8CEC6B2C9BCAFB3C9B904
:10028F00A600D6B8CEC6B2C9BCAFCAA7B0DC00C7ED
:10029F00EBD6D8D0C2B2D9D7F700B0B4BCFC31205E
:1002AF003A20D4F6BCD3D6B8CEC600B0B4BCFC321C
:1002BF00203A20C9BEC8A5D6B8CEC600B0B4BCFC83
:1002CF0033203A20CAD6B6AFBFAACBF800B0B4BC21
:1002DF00FC34203A20D0DEB8C4C3DCC2EB00CAE441
:1002EF00C8EBC9BEC8A5B5C4D6B8CEC6BAC500C975
:1002FF00BEC8A5D6B8CEC6BAC5B3C9B9A6A3A10004
:10030F00C9BEC8A5D6B8CEC6BAC5CAA7B0DCA3A108
:10031F0000C7EBCAE4C8EBD0C2C3DCC2EB00C7EB2B
:10032F00D4D9B4CECAE4C8EBD0C2C3DCC2EB00C38D
:10033F00DCC2EBD0DEB8C4B3C9B9A6002020C3DC41
:10034F00C2EBD0DEB8C4CAA7B0DC202000C1BDB458
:10035F00CECAE4C8EBB5C4C3DCC2EBB2BB00D2BBA0
:10036F00D6C2A3ACC7EBD6D8D0C2B2D9D7F700C785
:10037F00EBCAE4C8EBC3DCC2EBA3BA00C3DCC2EB2D
:10038F00B4EDCEF3002020C7EBD6D8D0C2B2D9D768
:10039F00F7A3A100C7EBCAE4C8EBC3DCC2EBBFAA4B
:1003AF00CBF8A3BA002020BBB9D3D02020B4CEBB4A
:1003BF00FABBE1002020C3DCC2EBD2D1CBF8CBC01B
:1003CF00002020C7EBD6B8CEC6BFAACBF800BBB66D
:1003DF00D3ADCAB9D3C300D6B8CEC6C3C5BDFBCF44
:1003EF00B5CDB300C7EBB0B42043BCFCBFAACBF86C
:0703FF0000303030303030D7
:1012A100014401063E020508070903014A140135FC
:1012B10014014B1401490B4700100000000000000D
:1012C10000500000000000000000000000000000CD
:0812D10000000000C100C10192
:100E83007599EF3099FDC2997599013099FDC29911
:100E93007599FF3099FDC2997599FF3099FDC299F3
:100EA3007599FF3099FDC2997599FF3099FDC299E3
:100EB3007599013099FDC299E4F5993099FDC2996C
:100EC3007599033099FDC2997599533099FDC2996B
:100ED300E4F5993099FDC299752100752257852251
:100EE300993099FDC299E4FF3098FDC2980FBF096C
:100EF300F73098FDC2988599493098FDC298859935
:100F03003D3098FDC29885993CE53DFE7C00E42583
:070F13003CF52CEC3EF52B30
:010F1A0022B4
:100F1B007599EF3099FDC2997599013099FDC29978
:100F2B007599FF3099FDC2997599FF3099FDC2995A
:100F3B007599FF3099FDC2997599FF3099FDC2994A
:100F4B007599013099FDC299E4F5993099FDC299D3
:100F5B007599033099FDC2997599013099FDC29924
:100F6B00E4F5993099FDC29975210075220585220A
:100F7B00993099FDC299E4FF3098FDC2980FBF09D3
:100F8B00F73098FDC2988599493098FDC29885999C
:100F9B003D3098FDC29885993CE53DFE7C00E425EB
:070FAB003CF52CEC3EF52B98
:010FB200221C
:100DD7007599EF3099FDC2997599013099FDC299BE
:100DE7007599FF3099FDC2997599FF3099FDC299A0
:100DF7007599FF3099FDC2997599FF3099FDC29990
:100E07007599013099FDC299E4F5993099FDC29918
:100E17007599043099FDC2997599023099FDC29967
:100E27008F993099FDC299EF2407F522E433F52114
:100E370085223CFF8F3D853D99209904C29980F911
:100E4700853C99209904C29980F9E4FF3098FDC246
:100E5700980FBF09F73098FDC2988599493098FDDA
:100E6700C29885993D3098FDC29885993CE53DFE2D
:0B0E77007C00E4253CF52CEC3EF52B44
:010E8200224D
:1009CC007599EF3099FDC2997599013099FDC299CD
:1009DC007599FF3099FDC2997599FF3099FDC299AF
:1009EC007599FF3099FDC2997599FF3099FDC2999F
:1009FC007599013099FDC299E4F5993099FDC29928
:100A0C007599083099FDC29975991B3099FDC29959
:100A1C008F993099FDC299E4F5993099FDC299E40A
:100A2C00F5993099FDC299E4F5993099FDC2997503
:100A3C0099B43099FDC299EF24D8F522E433F5210D
:100A4C0085223CFF8F3D853D993099FDC299853CAF
:100A5C00993099FDC299E4FF3098FDC2980FBF09F7
:100A6C00F73098FDC2988599493098FDC298AD9998
:100A7C003098FDC298AC993098FDC2983098FDC260
:100A8C00983098FDC29885993D3098FDC29885990B
:100A9C003CE53DFE7A00E4253CF52CEA3EF52BAF17
:0F0AAC0005EDFEAD047C00E42DF524EC3EF523B2
:010ABB002218
:100D21007599EF3099FDC2997599013099FDC29974
:100D31007599FF3099FDC2997599FF3099FDC29956
:100D41007599FF3099FDC2997599FF3099FDC29946
:100D51007599013099FDC299E4F5993099FDC299CF
:100D61007599033099FDC2997599103099FDC29911
:100D7100E4F5993099FDC2997521007522148522F7
:100D8100993099FDC299E4FF3098FDC2980FBF09CF
:100D9100F73098FDC2988599493098FDC298AD9970
:100DA1003098FDC298AC993098FDC29885993D3034
:100DB10098FDC29885993CE53DFE7A00E4253CF515
:100DC1002CEA3EF52BAF05EDFEAD047C00E42DF5DC
:050DD10024EC3EF523B7
:010DD60022FA
:100B96007599EF3099FDC2997599013099FDC29901
:100BA6007599FF3099FDC2997599FF3099FDC299E3
:100BB6007599FF3099FDC2997599FF3099FDC299D3
:100BC6007599013099FDC299E4F5993099FDC2995C
:100BD6007599073099FDC29975990C3099FDC2999E
:100BE600AD07AF068F993099FDC2998D993099FD61
:100BF600C299E4F5993099FDC2997599013099FD2C
:100C0600C299ED2415FDE433FC7E00ED2FF522EEAE
:100C16003CF52185223CFF8F3D853D993099FDC2EB
:100C260099853C993099FDC299E4FF3098FDC298A8
:100C36000FBF09F73098FDC2988599493098FDC2D3
:100C46009885993D3098FDC29885993CE53DFE7C96
:0A0C560000E4253CF52CEC3EF52BE4
:010C60002271
:100C61007599EF3099FDC2997599013099FDC29935
:100C71007599FF3099FDC2997599FF3099FDC29917
:100C81007599FF3099FDC2997599FF3099FDC29907
:100C91007599013099FDC299E4F5993099FDC29990
:100CA1007599033099FDC2997599113099FDC299D1
:100CB100E4F5993099FDC2997521007522158522B7
:100CC100993099FDC299E4FF3098FDC2980FBF0990
:100CD100F73098FDC2988599493098FDC298AD9931
:100CE1003098FDC298AC993098FDC2983098FDC2F9
:100CF100983098FDC29885993D3098FDC2988599A4
:100D01003CE53DFE7A00E4253CF52CEA3EF52BAFAF
:0F0D110005EDFEAD047C00E42DF524EC3EF5234A
:010D200022B0
:10143600D3EF9400EE940040147D6E7C00ED1D7099
:0D144600011CED4C70F7EF1F70E61E80E3F7
:011453002276
:0C1390001212018F341211A37F1E7E0088
:10139C00EF1FAA0670011E4A600BE4FDEDC3947D9D
:0513AC0050EE0D80F77A
:0113B1002219
:10148B0043878075985053890F438921758BFF755E
:09149B008DFFC2ABD28ED2AF224C
:101201007590F0E59054F064F060497F017E001222
:10121100139CE59054F064F0603A7BFEEB30E434CB
:10122100F590E59054F064F06022E59054F0440F9D
:10123100FAC2A07F327E00121436D2A0E59054F09B
:10124100FFBFF0F8EAF4FFEBF42FFF22EB25E044B7
:0612510001FB80C87F00D4
:011257002274
:1011A300EF605A12102111D11111DD1211ED14113A
:1011B300D52111E12211F12411F92811D94111E5A9
:1011C3004211F54411FD4811E98200001200753BFC
:1011D3000122753B0222753B0322753B0422753BBA
:1011E3000522753B0622753B2222753B0722753B80
:0E11F3000822753B0922E4F53B22753B0B22D6
:100ABC001214707BFF7A02790F7D017F011212589C
:100ACC00800BE54964026005E549B40305120C612D
:100ADC0080F0E54970791214707BFF7A02791C7DE5
:100AEC00027F01121258AE23AF247C007D64120FDA
:100AFC00CC8F08AE23AF247C007D0A120FCC7C0077
:100B0C007D0A120FCC8D09AE23AF247C007D0A1216
:100B1C000FCC8D0A7BFF7A0279257D017F021212A0
:100B2C00587F8D12135EE5082430FF121512E5096B
:100B3C002430FF121512E50A2430FF121512E4F5C9
:100B4C002DD2A0C2B67FC47E0912139CD2B622E568
:100B5C0049B409201214707BFF7A02792D7D017F34
:100B6C00011212587BFF7A02793A7D017F02121230
:100B7C0058C2A022E549B401101214707BFF7A020E
:090B8C0079477D017F0112125826
:010B9500223D
:100735001214707BFF7A0279527D027F01121258E2
:100745008004E5496005120F1B80F77F01120DD764
:1007550012148B8005E549B401077F011209CC808D
:10076500F4E54970281214707BFF7A02795B7D01EC
:100775007F011212587BFF7A027968E4FD7F03122C
:100785001258121201EF600302085580F5E549641D
:100795000960030208551214707BFF7A0279777D90
:1007A500017F011212588005E549B40205120D2199
:1007B50080F6121470E5497066AE23AF24FC7D64A3
:1007C500120FCC8F0CAE23AF247C007D0A120FCC08
:1007D5007C007D0A120FCC8D0DAE23AF247C007DED
:1007E5000A120FCC8D0E7BFF7A0279847D017F0181
:1007F5001212587BFF7A0279257D017F0212125869
:100805007F8D12135EE50C2430FF121512E50D24C1
:1008150030FF121512E50E2430FF121512801EE569
:1008250049601A7BFF7A0279917D017F0112125886
:100835007BFF7A02799E7D017F021212587BFF7A37
:10084500027968E4FD7F03121258121201EF60FA73
:100855001214707BFF7A0279A9E4FDFF1212587B0E
:10086500FF7A0279BAE4FD7F011212587BFF7A0202
:1008750079CBE4FD7F021212587BFF7A0279DCE422
:06088500FD7F0302125882
:10088B00E4F50C1214707BFF7A0279EDE4FD7F0125
:10089B001212587F057845E4F608DFFC7F0512122B
:1008AB00018F34E53464886062121390E534700371
:1008BB00753B0AE53BC394004033E53BD3940950A9
:1008CB002C7445250CF8A63BE50CC394035014E59A
:1008DB000C2488FF12135E7445250CF8E62430FFB8
:1008EB00121512050CE50CB40403750C03E53BB4AF
:1008FB0022B1E50C70047F888007150CE50C248869
:10090B00FF12135E7F201215128098E50CC3940220
:10091B00401EE54675F00AA47C002547FDEC35F03A
:10092B00FCE54575F064A4AEF02DF524EE3CF52303
:10093B00E50CB40112E54575F00AA4AEF07C002578
:10094B0046F524EC3EF523E50C7005F5238545248F
:10095B00AF24AE23120B96E549700D1214707BFF7A
:10096B007A0279FE7D01800B1214707BFF7A03797A
:10097B000F7D027F011212587BFF7A027968E4FD2A
:10098B007F02121258121201EF60FA1214707BFFE1
:10099B007A0279A9E4FDFF1212587BFF7A0279BA29
:1009AB00E4FD7F011212587BFF7A0279CBE4FD7FC5
:1009BB00021212587BFF7A0279DCE4FD7F030212EC
:0109CB0058D3
:10000300E4F50D1214707BFF7A0379207D017F01E3
:10001300121258E4F50C740E250CF8E4F6050CE501
:100023000CB406F21212018F34E5346488605B125B
:100033001390E5347003753B0AE53BC39400402CF1
:10004300E53BD394095025740E250DF8A63BE50D29
:10005300C39406500DE50D2489FF12135E7F0F1222
:100063001512050DE50DB40703750D06E53BB42226
:10007300B8E50D70047F898007150DE50D2489FF10
:1000830012135E7F20121512809FE50DC394054065
:1000930002D200121470121470E4F50D7BFF7A0380
:1000A300792DFD7F01121258E4F50C7414250CF818
:1000B300E4F6050CE50CB406F21212018F34E534B4
:1000C3006488605B121390E5347003753B0AE53B6B
:1000D300C39400402CE53BD3940950257414250D9B
:1000E300F8A63BE50DC39406500DE50D2489FF12D8
:1000F300135E7F0F121512050DE50DB40703750D81
:1001030006E53BB422B8E50D70047F898007150D21
:10011300E50D2489FF12135E7F20121512809FE5DF
:100123000DC394054002D20112147030006A3001ED
:1001330067E50E65147061E50F6515705BE5106585
:10014300167055E5116517704FE51265187049E58E
:100153001365197043F51A740E251AF8E6FDAF1AE4
:100163001214D57F647E00121436051AE51AC3945F
:100173000640E47BFF7A03793E7D01E4FF121258C7
:100183007BFF7A027968E4FD7F03121258E4F52DB0
:10019300121201EF703B80F87BFF7A03794BE4FD89
:1001A300FF1212587BFF7A03795CE4FD7F01121280
:1001B300587BFF7A03796DE4FD7F021212587BFFAF
:1001C3007A027968E4FD7F03121258121201EF607C
:1001D300FA1214707BFF7A0279A9E4FDFF12125818
:1001E3007BFF7A0279BAE4FD7F011212587BFF7A12
:1001F3000279CBE4FD7F021212587BFF7A0279DC8D
:0B020300E4FD7F03121258C201C2008C
:01020E0022CD
:101142001214707BFF7A02791C7D027F0112125801
:10115200C2B67FC47E0912139CD2B67BFF7A027993
:1011620068E4FD7F03121258121201EF60FA7BFF4E
:101172007A0279A9E4FDFF1212587BFF7A0279BA4A
:10118200E4FD7F011212587BFF7A0279CBE4FD7FE6
:10119200021212587BFF7A0279DCE4FD7F0302120D
:0111A20058F4
:10040600E4F509750A011214707BFF7A03797E7D83
:10041600017F01121258E4F50874252508F8E4F660
:100426000508E508B406F21212018F34E534648833
:10043600605B121390E5347003753B0AE53BC39489
:1004460000402CE53BD39409502574252509F8A6D0
:100456003BE509C39406500DE5092489FF12135E96
:100466007F0F1215120509E509B40703750906E59C
:100476003BB422B8E50970047F8980071509E509B0
:100486002489FF12135E7F20121512809F121470AA
:10049600E4F50874252508F8E6FF74102508F582AA
:1004A600E43400F583EFF00508E508B406E5E50950
:1004B60064067025E525B4011DE526B40318E52775
:1004C600B40113E528B4040EE529B40209E52A703F
:1004D60005750B018003E4F50BE50B64016003026F
:1004E6000568F50BF50874252508F8E4F60508E512
:1004F60008B406F27BFF7A0279A9E4FDFF121258CE
:100506007BFF7A0279BAE4FD7F011212587BFF7AEB
:100516000279CBE4FD7F021212587BFF7A0279DC66
:10052600E4FD7F03121258E508648470030205C8CF
:100536001212018F081211A3E53B24FE601214600B
:1005460014146019240370DF120735753B0680D733
:1005560012088B80D2121142753B0880CA12000322
:1005660080C57BFF7A03798B7D027F011212587B4F
:10057600FF7A037994E4FD7F021212587BFF7A0218
:100586007968E4FD7F03121258121201EF60FA7BBC
:10059600FF7A0279A9E4FDFF1212587BFF7A0279ED
:1005A600BAE4FD7F011212587BFF7A0279CBE4FD93
:1005B6007F021212587BFF7A0279DCE4FD7F031278
:0505C6001258E4F534B9
:0105CB00220D
:1005CC00E4F509750A01F50C1214707BFF7A0379B6
:1005DC00A3E4FD7F01121258E4F508742E2508F8E7
:1005EC00E4F60508E508B406F21212018F34E5347E
:1005FC006488605D121390E5347003753B0AE53B2B
:10060C00C39400402EE53BD394095027742E250942
:10061C00F8A63BE509C39406500DE5092489FF12A1
:10062C00135E7F0F1215120509E509C394074003E9
:10063C00750906E53BB422B6E50970047F8980078D
:10064C001509E5092489FF12135E7F20121512800B
:10065C009D121470E509C394064030E4F508AF0808
:10066C00121454742E2508F8E6B50702050C7F64A5
:10067C007E001214360508E508C3940640E0E50C2C
:10068C00B40605750B018003E4F50BE50B640170F2
:10069C0024E52DC39403501DE4F50B121142E4F52F
:1006AC002DD2A0F508742E2508F8E4F60508E50807
:1006BC00B406F2806EE52DC39403503C052D7BFFF0
:1006CC007A03798B7D027F011212587BFF7A0379B2
:1006DC00B4E4FD7F021212587BFF7A027968E4FDC4
:1006EC007F031212587F8A12135E7F20121512C3D9
:1006FC007433952DFF121512E52DB4031FC2A012F1
:10070C0014707BFF7A0379C3E4FD7F011212587BCE
:10071C00FF7A0379D0E4FD7F021212587FE87E0342
:09072C0012139CE4F53402147070
:1010D300E534648160347BFF7A0379DD7D02E4FFCC
:1010E3001212587BFF7A0379E67D017F01121258B1
:1010F3007BFF7A0379F37D017F021212587BFF7A1B
:1011030002790F7D017F031212581212018F3430BE
:10111300B709121470120ABC121470E534B48109B1
:10112300121470120406121470E534B48410E52D01
:0F113300C3940350091214701205CC12147022C9
:1014BD0012148B12152E1214A41214701210D37F45
:0814CD00647E0012139C80F400
:05153A0000000000228A
:0C152E00C2B3D2B412153AD2B502153A7D
:1014EA00D2B412153AD2B512153AC2B512153AC289
:0414FA00B402153AE9
:1014FE00C2B412153AC2B512153AD2B412153AD276
:04150E00B502153AD3
:1013F600E4FEC2B412153AEF3392B512153AD2B4DE
:1014060012153AEF25E0FF0EBE08E7C2B402153A00
:1013B200E4FEFDC2B412153A30B5047F018002E4A6
:1013C200FFEE25E04FFED2B412153A0DBD08E4AF90
:0113D2000614
:0113D30022F7
:0B136D001213F6121378AF051213F6EE
:10137800E4FFD2B412153A30B509EFC394FF500315
:081388000F80F4C2B402153A13
:02145400AD07E2
:101456001214EA7FA012136D1214EA7FA11213F67A
:091466001213781213B21214FEE5
:01146F00225A
:1014D500AC071214EA7FA01213F6121378AF0412A8
:0514E500136D0214FE6E
:10141600808182838485868790919293949596970E
:1014260088898A8B8C8D8E8F98999A9B9C9D9E9F7E
:0F13D4001213E3EC54F0FF1213E3ECC454F0FFD8
:1013E300E4FEC2A7EF25E0FF92A6D2A7C2A70EBED6
:0213F30008F000
:0113F50022D5
:1012DA00E4FFFEFDEE25E0FEC2A7D2A7C2A730A614
:1012EA00010E0DBD08EEE4FDEF25E0FFC2A7D2A76F
:1012FA00C2A730A6010F0DBD08EEEF540FFFEE5442
:03130A00F02FFFC2
:01130D0022BD
:0D1521007FFC1213E31212DAEF20E7F42230
:1013400075F008E51BA4251CF582E435F0F583E56E
:0E135000822416F582E5833414F583E493FFBE
:0F135E00AC07D2A51215217FF81213D4C2A52215
:0F151200AC07D2A51215217FFA1213D4C2A5225D
:1014A4007F3012135E7F0312135E7F0C12135E7F74
:0914B4000112135E7F0602135EB3
:10130E00AB07AA05EB14600C14600D14600E2403D9
:10131E007B80800A7B9080067B8880027B985302BC
:10132E00077F3012135EEA2BFF12135EEA2BFF02C9
:02133E00135E3C
:101470007F3012135E7F8012135EE4FB7F20121513
:0B148000120BBB40F7E4FDFF02130E4F
:101258008F1B8D1C7F3012135E121340120FB36068
:1012680037E51CB40805E4F51C051BE51BB40403AD
:10127800E4F51B121340120FB3FF12151274012963
:10128800F9E43AFA120FB3FF60D212151274012969
:09129800F9E43AFA051C80C422B5
:03000000021047A4
:0C104700787FE4F6D8FD75814B02108E16
:100FB300BB010689828A83E0225002E722BBFE023C
:090FC300E32289828A83E493226F
:100FCC00BC000BBE0029EF8DF084FFADF022E4CC09
:100FDC00F875F008EF2FFFEE33FEEC33FCEE9DECD2
:100FEC00984005FCEE9DFE0FD5F0E9E4CEFD22ED18
:100FFC00F8F5F0EE8420D21CFEADF075F008EF2F62
:10100C00FFED33FD4007985006D5F0F222C398FD52
:05101C000FD5F0EA22EF
:10102100D083D082F8E4937012740193700DA3A35E
:1010310093F8740193F5828883E473740293686072
:06104100EFA3A3A380DF72
:101053000214BDE493A3F8E493A34003F68001F2E2
:1010630008DFF48029E493A3F85407240CC8C3339E
:10107300C4540F4420C8834004F456800146F6DF6D
:10108300E4800B01020408102040809012A1E47E4A
:10109300019360BCA3FF543F30E509541FFEE49362
:1010A300A360010ECF54C025E060A840B8E493A329
:1010B300FAE493A3F8E493A3C8C582C8CAC583CA54
:1010C300F0A3C8C582C8CAC583CADFE9DEE780BE0C
:0112D9000014
:00000001FF
