:1012630050686F6E65206E756D6265723A2020203E
:10127300002020202020202020202020202020208B
:10128300200041542B434D47463D310D0A00415444
:101293002B435343533D2255435332220D0A0041FE
:1012A300542B43534D503D31372C302C322C323597
:1012B3000D0A004F4B0041542B434D47533D004112
:1012C300540D0A006174690D0A004154480D0A0067
:1012D30041542B4950523D393630300D0A004154A8
:1012E3002B434E4D493D322C312C302C302C300DBC
:1012F3000A0041542B434D474C3D22524543205550
:101303004E52454144222C300D0A003842463736AE
:101313004345383631304646463043363730393424
:101323004542413846444235313635464630310030
:1013330057656C636F6D6520746F2075736520202E
:101343000057696E646F7720202073797374656D1D
:101353002000533A20202020483A20202520202016
:101363002020004C3A20202020543A2020432020E3
:101373002020200057696E646F77204F70656E6977
:101383006E6720200057696E646F7720436C6F731C
:10139300696E672020004C2D434C4F53453A202063
:1013A300204C5558202000482D48756D203A2020A8
:1013B3002020252020202000506C6561736520705B
:1013C30072657373202B2F2D00506C65617365203C
:1013D300776169742E2E2E202000482D54656D20D0
:1013E3003A20202020432020202000482D536D6FD9
:1013F3006B653A2020202020202020004C2D4F50C8
:10140300454E203A2020204C55582020002053657B
:101413006E64696E6720534D532020202000010322
:0E1423000206040C080909080C040602030165
:101ED400C18CC182C104C109014A0004330000005D
:0B1EE40000023E00000424000000008B
:101F6D00D3EF9400EE9400400DE4FD0DBD1BFCEF8E
:061F7D001F70ED1E80EA5A
:011F8300223B
:101EF000150A150A150A150A150A150A150A150AEA
:081F0000150A150A150A150A5D
:011F080022B6
:101C6800E4FF752F0220B507AE2F052FEE70F61290
:101C78001EF0121EF0E4F54130B503754101752FD1
:101C88000230B507AE2F052FEE70F6E52F64016020
:0F1C98000EE55925E0F559E54142590FBF08C344
:011CA700221A
:101A8800C2B57FB47E00121F6DD2B5121EF0121EB1
:101A9800F0121EF0121EF0D2B520B556752F022096
:101AA800B507AF2F052FEF70F6752F0230B507AFCA
:101AB8002F052FEF70F6121C6885594B121C68858C
:101AC8005958121C6885592C121C6885592E121CED
:101AD80068855940D2B5E52C252E254B2558F5416A
:101AE800B5400F854B42855843852C28852E2A857D
:031AF80040302259
:101B6A00C2940000D296D2950000C2950000A20D40
:101B7A009296D2950000C2950000A20E9296D29536
:101B8A000000C295D296E4FFFEEF25E0FFD2950051
:101B9A0000C2950000A296E43342070EBE08EAE4AA
:101BAA00FD3096027D80E4FEEDC313FDD295000060
:101BBA00C29500003096034305800EBE07EAD29410
:0B1BCA00C295D296EFB50501227F0006
:011BD50022ED
:0C1F9900C2AF53E71843E70143E7802282
:091FBC0053E77FE4F5E6D2AF2201
:0B1FB100121F9975E64675E6B9002284
:101E8000AD07AC06C2AF8CE3EDF5E453E5F843E5EE
:0C1E900001121FB1121FBCD2AFAFE22242
:101F8400EE54FEFEF5E3E4F5E453E5F843E503120D
:051F94001FB1021FBC9B
:101E9C00AB07AA06C2AF8AE3EBF5E453E5F843E5DA
:0C1EAC00028DE2121FB1121FBCD2AF2247
:0E0003007FC87E00EF1FAC0670011E4C70F629
:0100110022CC
:101AFB007F007E20121F84AD2B7E20121E9CAD32E8
:101B0B000F121E9CAD230F121E9CAD290F121E9C93
:101B1B00AD3B0F121E9CAD4C0F121E9CAD4D0F1208
:101B2B001E9CAD4E0F121E9CAD4F0F121E9CAD5046
:101B3B000F121E9CAD510F121E9CAD520F121E9C0C
:101B4B00AD530F121E9CAD540F121E9CAD550F12B0
:0F1B5B001E9CAD560F121E9CAD2D7F60021E9C6E
:101A0E007F007E20121E808F2B7F01121E808F3250
:101A1E007F02121E808F237F03121E808F297F0468
:101A2E00121E808F3B7F05121E808F4C7F06121E6A
:101A3E00808F4D7F07121E808F4E7F08121E808F63
:101A4E004F7F09121E808F507F0A121E808F517F8A
:101A5E000B121E808F527F0C121E808F537F0D1221
:101A6E001E808F547F0E121E808F557F0F121E8088
:0A1A7E008F567F60121E808F2D220C
:101D1E00121A0EE52D6401602C752D01752B21759F
:101D2E00323C75231E7529B4753B55E4F54CF54DC3
:101D3E00F54EF54FF550F551F552F553F554F55561
:061D4E00F556121AFB22FB
:061E3C00C2B47F327E00FB
:101E4200D3EF9400EE940040147D6E7C00ED1D7083
:0D1E5200011CED4C70F7EF1F70E61E80E3E1
:011E5F002260
:101DBA00C2A78F807F057E00121DCBD2A77F057E2A
:011DCA000018
:101DCB00D3EF9400EE940040147D0A7C00ED1D705F
:0D1DDB00011CED4C70F7EF1F70E61E80E359
:011DE80022D8
:101F0900E4FBFAEB90142193F5901200030BBB004C
:081F1900010AEB64084A70EBB9
:011F2100229D
:101F2200E4FBFAEB90142993F5901200030BBB002B
:081F3200010AEB64084A70EBA0
:011F3A002284
:041FA500D2B47F80B3
:081FA900C2A5121DBAC2A72255
:101E60007C037DE81214777F647E00CFCDCFCECC8B
:081E7000CE121477EF2430FFBD
:081E7800D2A5121DBAC2A72277
:101F3B00EF6003121FA9121431FF600C121E78748C
:091F4B000129F9E43AFA80EE22C2
:101C2700C2A6C2A77F38121FA97F0C121FA97F0661
:101C3700121FA97F01121FA97F80121FA9E4FBEBC6
:101C470090133393FF121E780BBB10F37FC0121F44
:101C5700A9E4FBEB90134493FF121E780BBB10F320
:011C6700225A
:10002600E53160030200AC30A10CE5456401704483
:10003600E5356415703E7F147E00121E4230A10C19
:10004600E5456401702EE53564157028121E3CD214
:10005600B4E4F535B2047FCD121FA92004047F5AFB
:1000660080027F53121E787F44121E787F20121E54
:100076007830A1FD30A20CE54564017029E53564B0
:100086000D70237F147E00121E4230A20AE545B48D
:100096000114E535B40D0F121E3CD2B4E4F535C299
:1000A60003D2B430A2FD2004030201FD200803029E
:1000B60001FD20000302017F30A30CE545640170B9
:1000C60065E5356409705F7F147E00121E4230A319
:1000D6000CE5456401704FE53564097049121E3C14
:1000E600121FA5E4F50AE50A90137793FF121E780E
:1000F600050AE50AC3941040ED7FC0121FA9E4F576
:100106000AE50A9013CC93FF121E78050AE50AC386
:10011600941040EDE4F535C20BD20AF522D202C2A4
:1001260008C20630A3FDD3E547953BE5469400405B
:1001360048D203121E3C121FA5E4F50AE50A9013E5
:100146007793FF121E78050AE50AC3941040ED7FE7
:10015600C0121FA9E4F50AE50A9013CC93FF121EFC
:1001660078050AE50AC3941040EDE4F535C20BD2D2
:100176000AF522D202C208C20630057B30A40CE57D
:100186004564017065E5356407705F7F147E001273
:100196001E4230A40CE5456401704FE535640770D6
:1001A60049121E3C121FA5E4F50AE50A901388932E
:1001B600FF121E78050AE50AC3941040ED7FC012AF
:1001C6001FA9E4F50AE50A9013CC93FF121E7805E1
:1001D6000AE50AC3941040EDE4F535D20BC20AF5E0
:1001E60022D202C208C20630A4FDD3E547953BE5FC
:1001F6004694004002D203200603020FD530A00C1D
:10020600E54564017033E5356447702D7F147E0043
:10021600121E4230A00BE5456401701DE535B4475A
:1002260018121E3CD2B4E4F535C2010531C208C22B
:1002360003D207121AFB30A0FDE531640160030208
:10024600031B121BD63007387F80121FA9E4F50A5C
:10025600E50A90139993FF121E78050AE50AC394DE
:100266001040ED7FC0121FA9E4F50AE50A9013BB02
:1002760093FF121E78C207050AE50AC3941040EBE5
:1002860030A10CE54564017038E535644070327F75
:10029600147E00121E4230A10CE54564017022E571
:1002A600356440701C121E3CD2B4E4F53530A1FD15
:1002B6000523121BD6E523C395294005E52914F528
:1002C6002330A212E54564016003020F3BE5356465
:1002D600196003020F3B7F147E00121E4230A212E9
:1002E600E54564016003020F3BE5356419600302CE
:1002F6000F3B121E3CD2B4E4F53530A2FD15238522
:100306002328121BD9E523C394014003020F3BE4C3
:10031600F523020F3BE531640260030203FC8529E5
:1003260028121BD93007387F80121FA9E4F50AE589
:100336000A9013FF93FF121E78050AE50AC394106C
:1003460040ED7FC0121FA9E4F50AE50A9013BB939E
:10035600FF121E78C207050AE50AC3941040EB3067
:10036600A10CE54564017038E535644070327F14B0
:100376007E00121E4230A10BE54564017022E53570
:10038600B4401D121E3CD2B4E4F53530A1FD05295A
:10039600852928121BD9E529C394FF40037529FF37
:1003A60030A212E54564016003020F3BE53564198E
:1003B6006003020F3B7F147E00121E4230A212E53C
:1003C6004564016003020F3BE53564196003020FC3
:1003D6003B121E3CD2B4E4F53530A2FD1529852921
:1003E60028121BD9E529D395234003020F3BE523A9
:1003F60004F529020F3BE531640360030204DB8543
:100406003228121BD93007387F80121FA9E4F50A5B
:10041600E50A9013AA93FF121E78050AE50AC3940B
:100426001040ED7FC0121FA9E4F50AE50A9013BB40
:1004360093FF121E78C207050AE50AC3941040EB23
:1004460030A10CE54564017038E535644070327FB3
:10045600147E00121E4230A10BE54564017022E5B0
:1004660035B4401D121E3CD2B4E4F53530A1FD056D
:1004760032853228121BD9E532C3945F40037532A8
:100486005F30A212E54564016003020F3BE5356467
:10049600196003020F3B7F147E00121E4230A21227
:1004A600E54564016003020F3BE53564196003020C
:1004B6000F3B121E3CD2B4E4F53530A2FD15328551
:1004C6003228121BD9E532D394054003020F3B753F
:1004D6003205020F3BE531640460030205BA852B41
:1004E60028121BD93007387F80121FA9E4F50AE5C8
:1004F6000A9013DD93FF121E78050AE50AC39410CD
:1005060040ED7FC0121FA9E4F50AE50A9013BB93DC
:10051600FF121E78C207050AE50AC3941040EB30A5
:10052600A10CE54564017038E535644070327F14EE
:100536007E00121E4230A10BE54564017022E535AE
:10054600B4401D121E3CD2B4E4F53530A1FD052B96
:10055600852B28121BD9E52BC3943C4003E4F52BCD
:1005660030A212E54564016003020F3BE5356419CC
:100576006003020F3B7F147E00121E4230A212E57A
:100586004564016003020F3BE53564196003020F01
:100596003B121E3CD2B4E4F53530A2FD152B852B5B
:1005A60028121BD9E52BD394004003020F3BE4F538
:1005B6002B020F3BE53164056003020699853B2853
:1005C600121BD93007387F80121FA9E4F50AE50A05
:1005D6009013EE93FF121E78050AE50AC3941040A5
:1005E600ED7FC0121FA9E4F50AE50A9013BB93FF3D
:1005F600121E78C207050AE50AC3941040EB30A123
:100606000CE54564017038E535644070327F147E30
:1006160000121E4230A10BE54564017022E535B497
:10062600401D121E3CD2B4E4F53530A1FD053B85D4
:100636003B28121BD9E53BC394FF4003E4F53B304E
:10064600A212E54564016003020F3BE535641960BB
:1006560003020F3B7F147E00121E4230A212E545B4
:1006660064016003020F3BE53564196003020F3B2A
:10067600121E3CD2B4E4F53530A2FD153B853B286D
:10068600121BD9E52BD394004003020F3BE4F53B44
:10069600020F3BE531640660030207D1200703021F
:1006A60007257BFF7A1279637F80121F3B7A1279C6
:1006B600747FC0121F3B7FC5121FA9E54C2430FF73
:1006C600121E78E54D2430FF121E78E54E2430FFC9
:1006D600121E78E54F2430FF121E78E5502430FFB5
:1006E600121E78E5512430FF121E78E5522430FFA1
:1006F600121E78E5532430FF121E78E5542430FF8D
:10070600121E78E5552430FF121E78E5562430FF78
:10071600121E787F0F121FA97FC5121FA9C20730AC
:10072600A10CE54564017047E535644070417F14CE
:100736007E00121E4230A10CE54564017031E5359C
:100746006440702B121E3CD2B4E4F53530A1FD0591
:100756004CD3E54C648094894003E4F54C7FC51284
:100766001FA9E54C2430FF121E787FC5121FA93041
:10077600A212E54564016003020F3BE5356419608A
:1007860003020F3B7F147E00121E4230A212E54583
:1007960064016003020F3BE53564196003020F3BF9
:1007A600121E3CD2B4E4F53530A2FD154CC3E54C1F
:1007B600648094805003754C097FC5121FA9E54CCF
:1007C6002430FF121E787FC5020F38E531640760BA
:1007D600030208903007077FC6121FA9C20730A17F
:1007E6000CE54564017047E535644070417F147E31
:1007F60000121E4230A10CE54564017031E53564F6
:1008060040702B121E3CD2B4E4F53530A1FD054DE7
:10081600D3E54D648094894003E4F54D7FC6121FED
:10082600A9E54D2430FF121E787FC6121FA930A2FB
:1008360012E54564016003020F3BE5356419600368
:10084600020F3B7F147E00121E4230A212E5456461
:10085600016003020F3BE53564196003020F3B128A
:100866001E3CD2B4E4F53530A2FD154DC3E54D640A
:100876008094805003754D097FC6121FA9E54D244B
:1008860030FF121E787FC6020F38E5316408600318
:1008960002094F3007077FC7121FA9C20730A10CF4
:1008A600E54564017047E535644070417F147E007C
:1008B600121E4230A10CE54564017031E5356440F5
:1008C600702B121E3CD2B4E4F53530A1FD054ED393
:1008D600E54E648094894003E4F54E7FC7121FA954
:1008E600E54E2430FF121E787FC7121FA930A212D0
:1008F600E54564016003020F3BE5356419600302B8
:100906000F3B7F147E00121E4230A212E5456401A1
:100916006003020F3BE53564196003020F3B121EAC
:100926003CD2B4E4F53530A2FD154EC3E54E6480E5
:1009360094805003754E097FC7121FA9E54E2430D7
:10094600FF121E787FC7020F38E531640960030283
:100956000A0E3007077FC8121FA9C20730A10CE58F
:100966004564017047E535644070417F147E00128E
:100976001E4230A10CE54564017031E535644070D6
:100986002B121E3CD2B4E4F53530A1FD054FD3E55C
:100996004F648094894003E4F54F7FC8121FA9E590
:1009A6004F2430FF121E787FC8121FA930A212E50D
:1009B6004564016003020F3BE53564196003020FCD
:1009C6003B7F147E00121E4230A212E54564016090
:1009D60003020F3BE53564196003020F3B121E3C10
:1009E600D2B4E4F53530A2FD154FC3E54F648094CB
:1009F600805003754F097FC8121FA9E54F2430FFA9
:100A0600121E787FC8020F38E531640A6003020AB5
:100A1600CD3007077FC9121FA9C20730A10CE545D3
:100A260064017047E535644070417F147E00121EF4
:100A36004230A10CE54564017031E5356440702B08
:100A4600121E3CD2B4E4F53530A1FD0550D3E55075
:100A5600648094894003E4F5507FC9121FA9E550CC
:100A66002430FF121E787FC9121FA930A212E54555
:100A760064016003020F3BE53564196003020F3B16
:100A86007F147E00121E4230A212E5456401600307
:100A9600020F3BE53564196003020F3B121E3CD280
:100AA600B4E4F53530A2FD1550C3E550648094805A
:100AB60050037550097FC9121FA9E5502430FF1253
:100AC6001E787FC9020F38E531640B6003020B8C78
:100AD6003007077FCA121FA9C20730A10CE545647B
:100AE600017047E535644070417F147E00121E4256
:100AF60030A10CE54564017031E5356440702B1278
:100B06001E3CD2B4E4F53530A1FD0551D3E5516460
:100B16008094894003E4F5517FCA121FA9E5512448
:100B260030FF121E787FCA121FA930A212E5456453
:100B3600016003020F3BE53564196003020F3B7F3A
:100B4600147E00121E4230A212E5456401600302C3
:100B56000F3BE53564196003020F3B121E3CD2B40D
:100B6600E4F53530A2FD1551C3E5516480948050FB
:100B7600037551097FCA121FA9E5512430FF121EC1
:100B8600787FCA020F38E531640C6003020C4B30E3
:100B960007077FCB121FA9C20730A10CE5456401E8
:100BA6007047E535644070417F147E00121E423066
:100BB600A10CE54564017031E5356440702B121EC9
:100BC6003CD2B4E4F53530A1FD0552D3E55264803C
:100BD60094894003E4F5527FCB121FA9E5522430D5
:100BE600FF121E787FCB121FA930A212E5456401C1
:100BF6006003020F3BE53564196003020F3B7F1467
:100C06007E00121E4230A212E54564016003020F07
:100C16003BE53564196003020F3B121E3CD2B4E477
:100C2600F53530A2FD1552C3E55264809480500319
:100C36007552097FCB121FA9E5522430FF121E7888
:100C46007FCB020F38E531640D6003020D0A3007D1
:100C5600077FCC121FA9C20730A10CE545640170BD
:100C660047E535644070417F147E00121E4230A174
:100C76000CE54564017031E5356440702B121E3C6D
:100C8600D2B4E4F53530A1FD0553D3E55364809421
:100C9600894003E4F5537FCC121FA9E5532430FFA6
:100CA600121E787FCC121FA930A212E5456401609E
:100CB60003020F3BE53564196003020F3B7F147E88
:100CC60000121E4230A212E54564016003020F3B8A
:100CD600E53564196003020F3B121E3CD2B4E4F5FD
:100CE6003530A2FD1553C3E55364809480500375D7
:100CF60053097FCC121FA9E5532430FF121E787FBB
:100D0600CC020F38E531640E6003020DC9300707C7
:100D16007FCD121FA9C20730A10CE54564017047BB
:100D2600E535644070417F147E00121E4230A10CEE
:100D3600E54564017031E5356440702B121E3CD2E6
:100D4600B4E4F53530A1FD0554D3E55464809489A7
:100D56004003E4F5547FCD121FA9E5542430FF1259
:100D66001E787FCD121FA930A212E54564016003EB
:100D7600020F3BE53564196003020F3B7F147E00CA
:100D8600121E4230A212E54564016003020F3BE5E4
:100D96003564196003020F3B121E3CD2B4E4F535EC
:100DA60030A2FD1554C3E5546480948050037554F5
:100DB600097FCD121FA9E5542430FF121E787FCD7E
:100DC600020F38E531640F6003020E883007077F93
:100DD600CE121FA9C20730A10CE54564017047E594
:100DE60035644070417F147E00121E4230A10CE52E
:100DF6004564017031E5356440702B121E3CD2B457
:100E0600E4F53530A1FD0555D3E555648094894058
:100E160003E4F5557FCE121FA9E5552430FF121EB7
:100E2600787FCE121FA930A212E545640160030245
:100E36000F3BE53564196003020F3B7F147E0012F9
:100E46001E4230A212E54564016003020F3BE53500
:100E560064196003020F3B121E3CD2B4E4F5353030
:100E6600A2FD1555C3E55564809480500375550958
:100E76007FCE121FA9E5552430FF121E787FCE02C1
:100E86000F38E53164106003020F3B3007077FCF50
:100E9600121FA9C20730A10CE54564017047E5356C
:100EA600644070417F147E00121E4230A10CE5455D
:100EB60064017031E5356440702B121E3CD2B4E4F7
:100EC600F53530A1FD0556D3E55664809489400377
:100ED600E4F5567FCF121FA9E5562430FF121E787F
:100EE6007FCF121FA930A20CE54564017047E53596
:100EF600641970417F147E00121E4230A20CE54533
:100F060064017031E5356419702B121E3CD2B4E4CD
:100F1600F53530A2FD1556C3E5566480948050031E
:100F26007556097FCF121FA9E5562430FF121E7889
:100F36007FCF121FA9E531C394115003020FD57F4D
:100F46000C121FA9E4F531D201D208200703020FC3
:100F5600D57F80121FA9E4F50AE50A90136693FF70
:100F6600121E78050AE50AC3941040ED7FC0121FD1
:100F7600A9E4F50AE50A90135593FF121E78050AAF
:100F8600E50AC3941040ED7F8D300011121FA97F32
:100F96004F121E787F46121E787F46800F121FA9B9
:100FA6007F4F121E787F4E121E787F20121E787F8A
:100FB600CD200407121FA97F5A8005121FA97F534F
:0F0FC600121E787F44121E787F20121E78C207F9
:010FD50022F9
:10171A00200B030217B8C201121F22E522C3940547
:10172A0050030217B8C202C2B4C20BE4F590D20148
:10173A00C205D200D208D2067F80121FA9E4F9E9B5
:10174A00FF3395E0FE74662FF58274133EF583E449
:10175A0093FF121E7809B90DE67FC0121FA9E4F99A
:10176A00E9FF3395E0FE74552FF58274133EF58335
:10177A00E493FF121E7809B90DE67F8D121FA97F27
:10178A004F121E787F46121E787F46121E787FCD32
:10179A00200407121FA97F5A8005121FA97F53121E
:1017AA001E787F44121E787F20121E78D2B4200A37
:1017BA0003021858C201121F09E522C394055003F7
:1017CA00021858C202C2B4E4F522F590C20AD20144
:1017DA00D205C200D208D2067F80121FA9E4F9E915
:1017EA00FF3395E0FE74662FF58274133EF583E4A9
:1017FA0093FF121E7809B90DE67FC0121FA9E4F9FA
:10180A00E9FF3395E0FE74552FF58274133EF58394
:10181A00E493FF121E7809B90DE67F8D121FA97F86
:10182A004F121E787F4E121E787F20121E787FCDAF
:10183A00200407121FA97F5A8005121FA97F53127D
:0E184A001E787F44121E787F20121E78D2B4C2
:01185800226D
:101CA8007F88121FA9E52875F00A842430FF121EC8
:101CB80078E52875F00A84E5F02430FF121E787F55
:101CC800C8121FA9E54275F00A842430FF121E7855
:0E1CD800E54275F00A84E5F02430FF021E7824
:101DE9007FC2121FA9AE46AF47121E60AE46AF476B
:101DF9007C007D641214777F0A121E69AE46AF47D4
:0E1E09007C007D0A121477ED2430FF021E7853
:101D8A007F82121FA9AE48AF49121E60AE48AF4902
:101D9A007C007D641214777E007F0A121E6BAE48A7
:101DAA00AF497C007D0A121477ED2430FF021E78B9
:031BD6008523283C
:101BD900E52875F00A8485F024E52875F06484E524
:101BE900F075F00A84F525AF287E007C037DE812A4
:101BF90014777E007F64CFCDCFCECCCE1214778FF1
:101C0900267F88121FA9E5262430FF121E78E525B4
:0E1C19002430FF121E78E5242430FF021E78CE
:061992008B0A8A0B890C90
:101998001214317002FF22E4FFFEAB0AAA0BA90C55
:1019A8008E8275830012144AFDAB0DAA0EA90F8F03
:1019B8008275830012144A6D70438F10AB0AAA0B0C
:1019C800A90C8E8275830012144A7004EF04FF225A
:1019D800AB0AAA0BA90C8E8275830012144AFDABC0
:1019E8000DAA0EA90F85108275830012144AB50539
:1019F8000A05100EE510C3949640C1E4FE0FEF648B
:051A08009670977F00BD
:011A0D0022B6
:101F5400758911E4F58CF58A758D3C758BB0D2AB1F
:091F6400D28ED2AFD28AD2AA2299
:101EB800758920758DFD758BFDC2ABD28EC29FD200
:0C1EC8009ED29CD2ACD2AFC28AC2AA2229
:081FC5008F993099FDC29922A9
:101E17007A1279C2121E297F207E03121E427A127D
:021E270079C779
:101E2900121431FF600C121FC5740129F9E43AFA42
:031E390080EE2216
:101859007BFF7A127985121E297F207E03121E4290
:101869007A127991121E297F207E03121E42E4F515
:10187900447F96900000E4F0A3DFFC7F967BFF7A1B
:101889001279A2121E297F2C7E01121E42E4FF75D5
:101899000D01750E00750F007A1279B6121992E4CE
:1018A900F544EF60577BFF7A1279B9121E297F221E
:1018B900121FC5E4FE7F30121FC5121FC57F3312E8
:1018C9001FC5744C2EF8E62430FF121FC50EBE0B3F
:1018D900E47F22121FC57F0D121FC57F0A121FC583
:1018E9007F207E03121E427BFF7A13790E121E2976
:0C18F9007F207E03121E427F1A121FC5C2
:0119050022BF
:100FD600121C27121EB87F887E13121E427BFF7AD0
:100FE6001279C2121E297F207E03121E42121E177C
:100FF600121E1E7F207E03121E427A1279CD121E09
:10100600297F207E03121E427A1279D3121E297F6F
:10101600207E03121E42E4F5447F96900000E4F021
:10102600A3DFFC7F107E27121E427BFF121E177F56
:10103600207E03121E427A1279CD121E297F207E4F
:1010460003121E427A127985121E297F207E031210
:101056001E427A1279E1121E297F207E03121E4259
:101066007A127991121E297F207E03121E427A126D
:1010760079A2121E297F207E03121E427A1279F56A
:10108600121E297F207E03121E427F80121FA9E4B2
:10109600F509E50990138893FF121E780509E509FD
:1010A600C3941040ED7FC0121FA9E4F509E509902D
:1010B60013CC93FF121E780509E509C3941040ED81
:1010C600121F54121D1ED20BC20AD201C208D2062A
:1010D600E4F522D20DC20E121B6A7546008F47D266
:1010E6000DD20E121B6A7548008F49120026121780
:1010F6001A3001F7300926121A88121CA8D20DC21E
:101106000E121B6A7546008F47121DE9D20DD20ECC
:10111600121B6A7548008F49121D8AC2092004CB2A
:10112600300074D3E5499529E5489400400DE5283B
:10113600952B5007E542C39532400BD3E547953BC7
:10114600E5469400405120034E7F80121FA9E4F526
:1011560009E50990137793FF121E780509E509C37F
:10116600941040ED7FC0121FA9E4F509E50990131C
:10117600CC93FF121E780509E509C3941040EDC211
:1011860000C20BD20AE4F522D202D3E547953BE52D
:101196004694004002D2032005030210F1D3E5472E
:1011A600953BE54694005017E54295325017E528E1
:1011B600952B5011C3E5499523E548940040063028
:1011C600B60302125020B6417F80121FA9E4F5092A
:1011D600E50990141093FF121E780509E509C394DA
:1011E6001040ED7FC0121FA9E4F509E5099013CC64
:1011F60093FF121E780509E509C3941040ED121EEF
:10120600B8121859121F54D2037F80121FA9E4F591
:1012160009E50990138893FF121E780509E509C3AD
:10122600941040ED7FC0121FA9E4F509E50990135B
:10123600CC93FF121E780509E509C3941040EDC250
:1012460005C20AD20BE4F522D202D3E547953BE567
:0D12560046940050030210F1D2030210F183
:03002300021CE6D6
:101CE600C0E0C083C082C0D075D018C2AC30981D89
:101CF600C298AF44054474002FF582E43400F5839E
:101D0600E599F0E544C394964003754400D2ACD0FF
:081D1600D0D082D083D0E0326E
:03001B00021D546F
:041D5400C0E0C0D05B
:101D5800758D3C758BB00508053DE508C3941440A6
:101D68000D7508003002020522200902D20930034D
:0D1D78000CE53DC3940A4005753D00B2B472
:051D8500D0D0D0E032D7
:030013000215AB28
:1015AB00C0E0C0F0C083C082C0D075D000C000C006
:1015BB0001C002C003C004C005C006C007D28CAF77
:1015CB008CEFFEAD8A7C00E42DFFEC3EFEE48F3AFF
:1015DB008E39F538F537F58CF58A7F407E1FFDABDC
:1015EB003AAA39A938A837D312159A4020E47FB00C
:1015FB007E36FDFCA83712159A5012755D00755C8E
:10160B0000755B00755A00754A010216FFE54A64C6
:10161B000160030216FF7FAA7E05FDFCAB3AAA39D7
:10162B00A938A837D312159A4047E47FB87E0BFD33
:10163B00FCA83712159A5039E47B08FAF9F8AF5D1C
:10164B00AE5CAD5BAC5A12150874332FF8E6C313BE
:10165B004480FEC00674332FF8D0E0F6E55D24011C
:10166B00F55DE4355CF55CE4355BF55BE4355AF52B
:10167B005AE47FBC7E02FDFCAB3AAA39A938A837E5
:10168B00D312159A4040E47FAA7E05FDFCA83712C1
:10169B00159A5032E47B08FAF9F8AF5DAE5CAD5B9E
:1016AB00AC5A12150874332FF8C000E6C313D000E0
:1016BB00F6E55D2401F55DE4355CF55CE4355BF541
:1016CB005BE4355AF55AE47F20FEFDFCAB5DAA5C6A
:1016DB00A95BA85AC312159A701AF55DF55CF55BF8
:1016EB00F55AF54AE536F4B53507754501C28C80D8
:1016FB0003754500D007D006D005D004D003D00227
:0F170B00D001D000D0D0D082D083D0F0D0E03247
:03000000021906DC
:0C190600787FE4F6D8FD75815D02194D74
:10143100BB010689828A83E0225002E722BBFE02B9
:09144100E32289828A83E49322EC
:10144A00BB010CE58229F582E5833AF583E0225057
:10145A0006E92582F8E622BBFE06E92582F8E222A1
:0D146A00E58229F582E5833AF583E49322BB
:10147700BC000BBE0029EF8DF084FFADF022E4CC59
:10148700F875F008EF2FFFEE33FEEC33FCEE9DEC22
:10149700984005FCEE9DFE0FD5F0E9E4CEFD22ED68
:1014A700F8F5F0EE8420D21CFEADF075F008EF2FB2
:1014B700FFED33FD4007985006D5F0F222C398FDA3
:0514C7000FD5F0EA2240
:1014CC0075F008758200EF2FFFEE33FECD33CDCCD7
:1014DC0033CCC58233C5829BED9AEC99E58298405A
:1014EC000CF582EE9BFEED9AFDEC99FC0FD5F0D637
:1014FC00E4CEFBE4CDFAE4CCF9A88222B800C1B961
:10150C000059BA002DEC8BF084CFCECDFCE5F0CB9E
:10151C00F97818EF2FFFEE33FEED33FDEC33FCEBD7
:10152C0033FB10D703994004EB99FB0FD8E5E4F992
:10153C00FA227818EF2FFFEE33FEED33FDEC33FC7F
:10154C00C933C910D7059BE99A4007EC9BFCE99A73
:10155C00F90FD8E0E4C9FAE4CCFB2275F010EF2FB8
:10156C00FFEE33FEED33FDCC33CCC833C810D707B8
:10157C009BEC9AE899400AED9BFDEC9AFCE899F8F3
:0E158C000FD5F0DAE4CDFBE4CCFAE4C8F92286
:10159A00EB9FF5F0EA9E42F0E99D42F0E89C45F0A7
:0115AA00221E
:10191200020FD6E493A3F8E493A34003F68001F206
:1019220008DFF48029E493A3F85407240CC8C333D6
:10193200C4540F4420C8834004F456800146F6DFA5
:10194200E4800B0102040810204080901ED4E47E43
:10195200019360BCA3FF543F30E509541FFEE4939A
:10196200A360010ECF54C025E060A840B8E493A361
:10197200FAE493A3F8E493A3C8C582C8CAC583CA8C
:10198200F0A3C8C582C8CAC583CADFE9DEE780BE44
:011EEF0000F2
:00000001FF
